{
  "address": "0xD8d63d656AD7F08F50e03a59CFAbe654a761d5fD",
  "abi": [
    {
      "inputs": [],
      "stateMutability": "nonpayable",
      "type": "constructor"
    },
    {
      "inputs": [],
      "name": "ConfirmationAddressMismatch",
      "type": "error"
    },
    {
      "anonymous": false,
      "inputs": [
        {
          "indexed": false,
          "internalType": "address",
          "name": "partyA",
          "type": "address"
        },
        {
          "indexed": false,
          "internalType": "address",
          "name": "partyB",
          "type": "address"
        },
        {
          "indexed": false,
          "internalType": "uint64",
          "name": "attestationId",
          "type": "uint64"
        }
      ],
      "name": "DidMeetIRL",
      "type": "event"
    },
    {
      "anonymous": false,
      "inputs": [
        {
          "indexed": true,
          "internalType": "address",
          "name": "previousOwner",
          "type": "address"
        },
        {
          "indexed": true,
          "internalType": "address",
          "name": "newOwner",
          "type": "address"
        }
      ],
      "name": "OwnershipTransferred",
      "type": "event"
    },
    {
      "inputs": [
        {
          "internalType": "address",
          "name": "partyB",
          "type": "address"
        }
      ],
      "name": "claimMetIRL",
      "outputs": [],
      "stateMutability": "nonpayable",
      "type": "function"
    },
    {
      "inputs": [
        {
          "internalType": "address",
          "name": "partyA",
          "type": "address"
        },
        {
          "internalType": "bytes",
          "name": "data",
          "type": "bytes"
        }
      ],
      "name": "confirmMetIRL",
      "outputs": [
        {
          "internalType": "uint64",
          "name": "",
          "type": "uint64"
        }
      ],
      "stateMutability": "nonpayable",
      "type": "function"
    },
    {
      "inputs": [
        {
          "internalType": "address",
          "name": "partyA",
          "type": "address"
        }
      ],
      "name": "metIRLMapping",
      "outputs": [
        {
          "internalType": "address",
          "name": "partyB",
          "type": "address"
        }
      ],
      "stateMutability": "view",
      "type": "function"
    },
    {
      "inputs": [],
      "name": "owner",
      "outputs": [
        {
          "internalType": "address",
          "name": "",
          "type": "address"
        }
      ],
      "stateMutability": "view",
      "type": "function"
    },
    {
      "inputs": [],
      "name": "renounceOwnership",
      "outputs": [],
      "stateMutability": "nonpayable",
      "type": "function"
    },
    {
      "inputs": [],
      "name": "schemaId",
      "outputs": [
        {
          "internalType": "uint64",
          "name": "",
          "type": "uint64"
        }
      ],
      "stateMutability": "view",
      "type": "function"
    },
    {
      "inputs": [
        {
          "internalType": "address",
          "name": "instance",
          "type": "address"
        }
      ],
      "name": "setSPInstance",
      "outputs": [],
      "stateMutability": "nonpayable",
      "type": "function"
    },
    {
      "inputs": [
        {
          "internalType": "uint64",
          "name": "schemaId_",
          "type": "uint64"
        }
      ],
      "name": "setSchemaID",
      "outputs": [],
      "stateMutability": "nonpayable",
      "type": "function"
    },
    {
      "inputs": [],
      "name": "spInstance",
      "outputs": [
        {
          "internalType": "contract ISP",
          "name": "",
          "type": "address"
        }
      ],
      "stateMutability": "view",
      "type": "function"
    },
    {
      "inputs": [
        {
          "internalType": "address",
          "name": "newOwner",
          "type": "address"
        }
      ],
      "name": "transferOwnership",
      "outputs": [],
      "stateMutability": "nonpayable",
      "type": "function"
    }
  ],
  "transactionHash": "0xc156fd008353455f5dc6f71038abe252693958fa1a46b9e9fcf7d16ff78079bd",
  "args": [],
  "numDeployments": 1,
  "solcInputHash": "968f677bc5130b7ef264d6f3280c9044",
  "bytecode": "0x608060405234801561001057600080fd5b5061001a3361001f565b61006f565b600080546001600160a01b038381166001600160a01b0319831681178455604051919092169283917f8be0079c531659141344cd1fd0a4f28419497f9722a3daafe3b4186f6b6457e09190a35050565b6109518061007e6000396000f3fe608060405234801561001057600080fd5b506004361061009e5760003560e01c80638e9d660f116100665780638e9d660f1461015b578063a8c5dc331461016e578063b8662b2314610181578063bc3afdbc146101aa578063f2fde38b146101bd57600080fd5b806305ca8ee3146100a3578063075b1a09146100b8578063715018a6146100f157806371eeeb45146100f95780638da5cb5b14610136575b600080fd5b6100b66100b13660046105bc565b6101d0565b005b6001546100d390600160a01b900467ffffffffffffffff1681565b60405167ffffffffffffffff90911681526020015b60405180910390f35b6100b6610206565b6100b66101073660046105fc565b33600090815260026020526040902080546001600160a01b0319166001600160a01b0392909216919091179055565b6000546001600160a01b03165b6040516001600160a01b0390911681526020016100e8565b6100b66101693660046105fc565b61021a565b600154610143906001600160a01b031681565b61014361018f3660046105fc565b6002602052600090815260409020546001600160a01b031681565b6100d36101b836600461062d565b610244565b6100b66101cb3660046105fc565b61047e565b6101d86104fc565b6001805467ffffffffffffffff909216600160a01b0267ffffffffffffffff60a01b19909216919091179055565b61020e6104fc565b6102186000610556565b565b6102226104fc565b600180546001600160a01b0319166001600160a01b0392909216919091179055565b6001600160a01b03828116600090815260026020526040812054909133911681900361045f5760408051600280825260608201909252600091816020015b606081526020019060019003908161028257905050604080516001600160a01b038816602082015291925001604051602081830303815290604052816000815181106102d0576102d06106ef565b6020026020010181905250816040516020016102fb91906001600160a01b0391909116815260200190565b6040516020818303038152906040528160018151811061031d5761031d6106ef565b602090810291909101810191909152604080516101408101825260015467ffffffffffffffff600160a01b820416825260009382018490528183018490526060820184905230608083015260a0820184905260c0820184905260e0820184905261010082018590526101208201889052915163b82916cb60e01b81529092916001600160a01b03169063b82916cb906103ba9085906004016107c7565b6020604051808303816000875af11580156103d9573d6000803e3d6000fd5b505050506040513d601f19601f820116820180604052508101906103fd91906108fe565b604080516001600160a01b038a811682528716602082015267ffffffffffffffff83168183015290519192507fda53ae722aaee28c6a58792ed2f89d9fc515a634e83f8307f77ff7bafd84aab5919081900360600190a1935061047892505050565b60405163e481626b60e01b815260040160405180910390fd5b92915050565b6104866104fc565b6001600160a01b0381166104f05760405162461bcd60e51b815260206004820152602660248201527f4f776e61626c653a206e6577206f776e657220697320746865207a65726f206160448201526564647265737360d01b60648201526084015b60405180910390fd5b6104f981610556565b50565b6000546001600160a01b031633146102185760405162461bcd60e51b815260206004820181905260248201527f4f776e61626c653a2063616c6c6572206973206e6f7420746865206f776e657260448201526064016104e7565b600080546001600160a01b038381166001600160a01b0319831681178455604051919092169283917f8be0079c531659141344cd1fd0a4f28419497f9722a3daafe3b4186f6b6457e09190a35050565b67ffffffffffffffff811681146104f957600080fd5b6000602082840312156105ce57600080fd5b81356105d9816105a6565b9392505050565b80356001600160a01b03811681146105f757600080fd5b919050565b60006020828403121561060e57600080fd5b6105d9826105e0565b634e487b7160e01b600052604160045260246000fd5b6000806040838503121561064057600080fd5b610649836105e0565b9150602083013567ffffffffffffffff8082111561066657600080fd5b818501915085601f83011261067a57600080fd5b81358181111561068c5761068c610617565b604051601f8201601f19908116603f011681019083821181831017156106b4576106b4610617565b816040528281528860208487010111156106cd57600080fd5b8260208601602083013760006020848301015280955050505050509250929050565b634e487b7160e01b600052603260045260246000fd5b6004811061072357634e487b7160e01b600052602160045260246000fd5b9052565b6000815180845260005b8181101561074d57602081850181015186830182015201610731565b506000602082860101526020601f19601f83011685010191505092915050565b60008282518085526020808601955060208260051b8401016020860160005b848110156107ba57601f198684030189526107a8838351610727565b9884019892509083019060010161078c565b5090979650505050505050565b608081526107e260808201835167ffffffffffffffff169052565b600060208301516107ff60a084018267ffffffffffffffff169052565b50604083015167ffffffffffffffff90811660c084015260608401511660e083015260808301516001600160a01b0381166101008085019190915260a085015191506101206108598186018467ffffffffffffffff169052565b60c0860151925061014061086f81870185610705565b60e087015115156101608701528287015161018087019190915292506108996101c086018461076d565b90860151858203607f19016101a087015290925090506108b98282610727565b91505082810360208401526108d2816000815260200190565b838103604085015260008152905060208101838103606085015260008152905060208101949350505050565b60006020828403121561091057600080fd5b81516105d9816105a656fea2646970667358221220c69c0e17477fa2482724f7d46ae3f8c2cca68e4b8f96ad47de07d89de61beedf64736f6c63430008180033",
  "devdoc": {
    "kind": "dev",
    "methods": {
      "owner()": {
        "details": "Returns the address of the current owner."
      },
      "renounceOwnership()": {
        "details": "Leaves the contract without owner. It will not be possible to call `onlyOwner` functions. Can only be called by the current owner. NOTE: Renouncing ownership will leave the contract without an owner, thereby disabling any functionality that is only available to the owner."
      },
      "transferOwnership(address)": {
        "details": "Transfers ownership of the contract to a new account (`newOwner`). Can only be called by the current owner."
      }
    },
    "version": 1
  },
  "userdoc": {
    "kind": "user",
    "methods": {},
    "version": 1
  },
  "storageLayout": {
    "storage": [
      {
        "astId": 638,
        "contract": "contracts/ActuallyMetIRL.sol:ActuallyMetIRL",
        "label": "_owner",
        "offset": 0,
        "slot": "0",
        "type": "t_address"
      },
      {
        "astId": 858,
        "contract": "contracts/ActuallyMetIRL.sol:ActuallyMetIRL",
        "label": "spInstance",
        "offset": 0,
        "slot": "1",
        "type": "t_contract(ISP)495"
      },
      {
        "astId": 860,
        "contract": "contracts/ActuallyMetIRL.sol:ActuallyMetIRL",
        "label": "schemaId",
        "offset": 20,
        "slot": "1",
        "type": "t_uint64"
      },
      {
        "astId": 864,
        "contract": "contracts/ActuallyMetIRL.sol:ActuallyMetIRL",
        "label": "metIRLMapping",
        "offset": 0,
        "slot": "2",
        "type": "t_mapping(t_address,t_address)"
      }
    ],
    "types": {
      "t_address": {
        "encoding": "inplace",
        "label": "address",
        "numberOfBytes": "20"
      },
      "t_contract(ISP)495": {
        "encoding": "inplace",
        "label": "contract ISP",
        "numberOfBytes": "20"
      },
      "t_mapping(t_address,t_address)": {
        "encoding": "mapping",
        "key": "t_address",
        "label": "mapping(address => address)",
        "numberOfBytes": "32",
        "value": "t_address"
      },
      "t_uint64": {
        "encoding": "inplace",
        "label": "uint64",
        "numberOfBytes": "8"
      }
    }
  }
}