{
  "address": "0x1152e4AEe1c757a70275838bef39917e8EEA35c1",
  "abi": [
    {
      "inputs": [
        {
          "internalType": "uint256",
          "name": "_pricePerOne",
          "type": "uint256"
        },
        {
          "internalType": "string",
          "name": "_productName",
          "type": "string"
        },
        {
          "internalType": "string",
          "name": "_storeName",
          "type": "string"
        }
      ],
      "stateMutability": "nonpayable",
      "type": "constructor"
    },
    {
      "anonymous": false,
      "inputs": [
        {
          "indexed": true,
          "internalType": "address",
          "name": "buyer",
          "type": "address"
        },
        {
          "indexed": false,
          "internalType": "uint256",
          "name": "price",
          "type": "uint256"
        },
        {
          "indexed": false,
          "internalType": "uint256",
          "name": "quantity",
          "type": "uint256"
        },
        {
          "indexed": true,
          "internalType": "uint256",
          "name": "index",
          "type": "uint256"
        }
      ],
      "name": "BuyEvent",
      "type": "event"
    },
    {
      "anonymous": false,
      "inputs": [
        {
          "indexed": true,
          "internalType": "address",
          "name": "buyer",
          "type": "address"
        },
        {
          "indexed": false,
          "internalType": "uint64",
          "name": "attestationId",
          "type": "uint64"
        }
      ],
      "name": "CommentEvent",
      "type": "event"
    },
    {
      "anonymous": false,
      "inputs": [
        {
          "indexed": true,
          "internalType": "address",
          "name": "buyer",
          "type": "address"
        },
        {
          "indexed": true,
          "internalType": "uint64",
          "name": "attestionId",
          "type": "uint64"
        }
      ],
      "name": "DeliveredEvent",
      "type": "event"
    },
    {
      "anonymous": false,
      "inputs": [
        {
          "indexed": true,
          "internalType": "address",
          "name": "previousOwner",
          "type": "address"
        },
        {
          "indexed": true,
          "internalType": "address",
          "name": "newOwner",
          "type": "address"
        }
      ],
      "name": "OwnershipTransferred",
      "type": "event"
    },
    {
      "anonymous": false,
      "inputs": [
        {
          "indexed": false,
          "internalType": "address",
          "name": "buyer",
          "type": "address"
        },
        {
          "indexed": false,
          "internalType": "enum VotesType",
          "name": "typeOFVote",
          "type": "uint8"
        }
      ],
      "name": "VoteEvent",
      "type": "event"
    },
    {
      "inputs": [
        {
          "internalType": "uint256",
          "name": "quantity",
          "type": "uint256"
        }
      ],
      "name": "buy",
      "outputs": [],
      "stateMutability": "payable",
      "type": "function"
    },
    {
      "inputs": [
        {
          "internalType": "bytes",
          "name": "data",
          "type": "bytes"
        }
      ],
      "name": "comment",
      "outputs": [],
      "stateMutability": "nonpayable",
      "type": "function"
    },
    {
      "inputs": [
        {
          "internalType": "address",
          "name": "buyer",
          "type": "address"
        },
        {
          "internalType": "bytes",
          "name": "data",
          "type": "bytes"
        }
      ],
      "name": "deliveredCompleted",
      "outputs": [],
      "stateMutability": "nonpayable",
      "type": "function"
    },
    {
      "inputs": [
        {
          "internalType": "address",
          "name": "buyer",
          "type": "address"
        },
        {
          "internalType": "uint256",
          "name": "index",
          "type": "uint256"
        }
      ],
      "name": "getCustomerDetails",
      "outputs": [
        {
          "components": [
            {
              "internalType": "uint256",
              "name": "timeOfPurchase",
              "type": "uint256"
            },
            {
              "internalType": "uint64",
              "name": "attestationId",
              "type": "uint64"
            },
            {
              "internalType": "uint256",
              "name": "quantity",
              "type": "uint256"
            },
            {
              "internalType": "uint256",
              "name": "price",
              "type": "uint256"
            }
          ],
          "internalType": "struct PurchaseDetails",
          "name": "",
          "type": "tuple"
        }
      ],
      "stateMutability": "view",
      "type": "function"
    },
    {
      "inputs": [],
      "name": "owner",
      "outputs": [
        {
          "internalType": "address",
          "name": "",
          "type": "address"
        }
      ],
      "stateMutability": "view",
      "type": "function"
    },
    {
      "inputs": [],
      "name": "productName",
      "outputs": [
        {
          "internalType": "string",
          "name": "",
          "type": "string"
        }
      ],
      "stateMutability": "view",
      "type": "function"
    },
    {
      "inputs": [],
      "name": "renounceOwnership",
      "outputs": [],
      "stateMutability": "nonpayable",
      "type": "function"
    },
    {
      "inputs": [],
      "name": "schemaId_Comment",
      "outputs": [
        {
          "internalType": "uint64",
          "name": "",
          "type": "uint64"
        }
      ],
      "stateMutability": "view",
      "type": "function"
    },
    {
      "inputs": [],
      "name": "schemaId_Invoice",
      "outputs": [
        {
          "internalType": "uint64",
          "name": "",
          "type": "uint64"
        }
      ],
      "stateMutability": "view",
      "type": "function"
    },
    {
      "inputs": [
        {
          "internalType": "uint64",
          "name": "schemaId_",
          "type": "uint64"
        }
      ],
      "name": "setCommentSchemaID",
      "outputs": [],
      "stateMutability": "nonpayable",
      "type": "function"
    },
    {
      "inputs": [
        {
          "internalType": "uint64",
          "name": "schemaId_",
          "type": "uint64"
        }
      ],
      "name": "setInvoicetSchemaID",
      "outputs": [],
      "stateMutability": "nonpayable",
      "type": "function"
    },
    {
      "inputs": [
        {
          "internalType": "address",
          "name": "instance",
          "type": "address"
        }
      ],
      "name": "setSPInstance",
      "outputs": [],
      "stateMutability": "nonpayable",
      "type": "function"
    },
    {
      "inputs": [],
      "name": "spInstance",
      "outputs": [
        {
          "internalType": "contract ISP",
          "name": "",
          "type": "address"
        }
      ],
      "stateMutability": "view",
      "type": "function"
    },
    {
      "inputs": [],
      "name": "totalAvailableStoke",
      "outputs": [
        {
          "internalType": "uint256",
          "name": "",
          "type": "uint256"
        }
      ],
      "stateMutability": "view",
      "type": "function"
    },
    {
      "inputs": [
        {
          "internalType": "address",
          "name": "newOwner",
          "type": "address"
        }
      ],
      "name": "transferOwnership",
      "outputs": [],
      "stateMutability": "nonpayable",
      "type": "function"
    },
    {
      "inputs": [
        {
          "internalType": "enum VotesType",
          "name": "typeOFVote",
          "type": "uint8"
        }
      ],
      "name": "vote",
      "outputs": [],
      "stateMutability": "nonpayable",
      "type": "function"
    }
  ],
  "transactionHash": "0x68cb8bd74d7ac7e8ae30dcf3becb5614ed117d2a9fab715e3190f9c6cec1f70a",
  "args": [
    100000000000000,
    "Iphone store",
    "Iphone 12"
  ],
  "numDeployments": 1,
  "solcInputHash": "cb64ae60bc63393710a68fdfdf8ede5c",
  "bytecode": "0x60806040523480156200001157600080fd5b50604051620017e8380380620017e8833981016040819052620000349162000183565b6200003f336200006b565b6005839055600b62000052838262000288565b50600c62000061828262000288565b5050505062000354565b600080546001600160a01b038381166001600160a01b0319831681178455604051919092169283917f8be0079c531659141344cd1fd0a4f28419497f9722a3daafe3b4186f6b6457e09190a35050565b634e487b7160e01b600052604160045260246000fd5b600082601f830112620000e357600080fd5b81516001600160401b0380821115620001005762000100620000bb565b604051601f8301601f19908116603f011681019082821181831017156200012b576200012b620000bb565b81604052838152602092508660208588010111156200014957600080fd5b600091505b838210156200016d57858201830151818301840152908201906200014e565b6000602085830101528094505050505092915050565b6000806000606084860312156200019957600080fd5b835160208501519093506001600160401b0380821115620001b957600080fd5b620001c787838801620000d1565b93506040860151915080821115620001de57600080fd5b50620001ed86828701620000d1565b9150509250925092565b600181811c908216806200020c57607f821691505b6020821081036200022d57634e487b7160e01b600052602260045260246000fd5b50919050565b601f82111562000283576000816000526020600020601f850160051c810160208610156200025e5750805b601f850160051c820191505b818110156200027f578281556001016200026a565b5050505b505050565b81516001600160401b03811115620002a457620002a4620000bb565b620002bc81620002b58454620001f7565b8462000233565b602080601f831160018114620002f45760008415620002db5750858301515b600019600386901b1c1916600185901b1785556200027f565b600085815260208120601f198616915b82811015620003255788860151825594840194600190910190840162000304565b5085821015620003445787850151600019600388901b60f8161c191681555b5050505050600190811b01905550565b61148480620003646000396000f3fe6080604052600436106100f35760003560e01c80638da5cb5b1161008a578063b3f98adc11610059578063b3f98adc146102e7578063d16381d014610307578063d96a094a14610327578063f2fde38b1461033a57600080fd5b80638da5cb5b146102555780638e9d660f14610287578063a8c5dc33146102a7578063b1ddb2e1146102c757600080fd5b80636f072fbe116100c65780636f072fbe146101a2578063715018a6146101c25780637f7650eb146101d757806381b72f16146101f957600080fd5b80630a5a7642146100f85780633f7fb22114610121578063528a732b14610143578063576c6d2b14610163575b600080fd5b34801561010457600080fd5b5061010e60035481565b6040519081526020015b60405180910390f35b34801561012d57600080fd5b5061014161013c366004610f58565b61035a565b005b34801561014f57600080fd5b5061014161015e366004611017565b610385565b34801561016f57600080fd5b5060015461018a90600160a01b90046001600160401b031681565b6040516001600160401b039091168152602001610118565b3480156101ae57600080fd5b5060025461018a906001600160401b031681565b3480156101ce57600080fd5b506101416105db565b3480156101e357600080fd5b506101ec6105ef565b6040516101189190611099565b34801561020557600080fd5b506102196102143660046110c8565b61067d565b6040516101189190815181526020808301516001600160401b031690820152604080830151908201526060918201519181019190915260800190565b34801561026157600080fd5b506000546001600160a01b03165b6040516001600160a01b039091168152602001610118565b34801561029357600080fd5b506101416102a23660046110f2565b610715565b3480156102b357600080fd5b5060015461026f906001600160a01b031681565b3480156102d357600080fd5b506101416102e236600461110d565b61073f565b3480156102f357600080fd5b5061014161030236600461115a565b610987565b34801561031357600080fd5b50610141610322366004610f58565b610b98565b61014161033536600461117b565b610bcd565b34801561034657600080fd5b506101416103553660046110f2565b610df8565b610362610e6e565b6002805467ffffffffffffffff19166001600160401b0392909216919091179055565b6001336000908152600e602052604090205460ff1660028111156103ab576103ab611194565b0361040f5760405162461bcd60e51b815260206004820152602960248201527f596f75206e65656420746f207573652070726f64756374206265666f726520636044820152686f6d6d656e74696e6760b81b60648201526084015b60405180910390fd5b604080516001808252818301909252600091816020015b60608152602001906001900390816104265790505060408051336020820152919250016040516020818303038152906040528160008151811061046b5761046b6111aa565b60209081029190910181019190915260408051610140810182526002546001600160401b0316815260009281018390528082018390526060810183905230608082015260a0810183905260c0810183905260e0810183905261010081018490526101208101859052600154915163b82916cb60e01b81529092916001600160a01b03169063b82916cb9061050390859060040161122e565b6020604051808303816000875af1158015610522573d6000803e3d6000fd5b505050506040513d601f19601f82011682018060405250810190610546919061135e565b6040805180820182526001600160401b0383811680835260016020808501918252336000818152601083528790209551865493511515680100000000000000000268ffffffffffffffffff199094169516949094179190911790935592519283529293507f38e7ac93da30e97d39a4baa1731920b1ad90ffbce17f2b56368e2db812d502d9910160405180910390a250505050565b6105e3610e6e565b6105ed6000610ec8565b565b600480546105fc9061137b565b80601f01602080910402602001604051908101604052809291908181526020018280546106289061137b565b80156106755780601f1061064a57610100808354040283529160200191610675565b820191906000526020600020905b81548152906001019060200180831161065857829003601f168201915b505050505081565b6106b160405180608001604052806000815260200160006001600160401b0316815260200160008152602001600081525090565b506001600160a01b0382166000908152600d6020908152604080832084845282529182902082516080810184528154815260018201546001600160401b03169281019290925260028101549282019290925260039091015460608201525b92915050565b61071d610e6e565b600180546001600160a01b0319166001600160a01b0392909216919091179055565b610747610e6e565b6001600160a01b0382166000908152600e602052604081205460ff16600281111561077457610774611194565b146107b65760405162461bcd60e51b8152602060048201526012602482015271139bc8189d5e481bdc99195c88199bdd5b9960721b6044820152606401610406565b604080516001808252818301909252600091816020015b60608152602001906001900390816107cd57905050604080513360208201529192500160405160208183030381529060405281600081518110610812576108126111aa565b6020908102919091018101919091526001600160a01b038481166000908152600e83526040808220805460ff1916600190811790915581516101408101835290546001600160401b03600160a01b82041682529481018390528082018390526060810183905230608082015260a0810183905260c0810183905260e0810183905261010081018690526101208101879052905163b82916cb60e01b815290939192919091169063b82916cb906108cc90859060040161122e565b6020604051808303816000875af11580156108eb573d6000803e3d6000fd5b505050506040513d601f19601f8201168201806040525081019061090f919061135e565b336000908152600d602090815260408083206009548452909152808220600101805467ffffffffffffffff19166001600160401b0385169081179091559051929350916001600160a01b038816917f37520ac2a4ab880e98ce03e67a94d1158eb0636fc92f3e74b088fce9d990eb7491a35050505050565b336000908152600d6020908152604080832060095484529091529020600101546001600160401b0316610a1a5760405162461bcd60e51b815260206004820152603560248201527f596f752063616e206e6f7420766f746520756e74696c20796f752070726f647560448201527418dd081a185cc81899595b8819195b1a5d995c9959605a1b6064820152608401610406565b336000908152600f602052604081205460ff166001811115610a3e57610a3e611194565b03610a82576000816001811115610a5757610a57611194565b03610a5f5750565b600754610a6d906001610f18565b50600854610a7c906001610f2b565b50610b5c565b6001336000908152600f602052604090205460ff166001811115610aa857610aa8611194565b03610ae6576000816001811115610ac157610ac1611194565b03610ae357600754610ad4906001610f2b565b50600854610a7c906001610f18565b50565b336000908152600f60205260409020805482919060ff191660018381811115610b1157610b11611194565b02179055506000816001811115610b2a57610b2a611194565b03610b3d57600754610ad4906001610f2b565b600854610b4b906001610f18565b50600754610b5a906001610f2b565b505b7fb14236643441ae89f4e8db470337cc30657235a1e93464e4c0f919487f9af0e23382604051610b8d9291906113b5565b60405180910390a150565b610ba0610e6e565b600180546001600160401b03909216600160a01b0267ffffffffffffffff60a01b19909216919091179055565b336000908152600e602052604081205460ff166002811115610bf157610bf1611194565b14610c575760405162461bcd60e51b815260206004820152603060248201527f596f752063616e277420706c61636520616e206f72646572207768696c65206160448201526f77616974696e672064656c697665727960801b6064820152608401610406565b806003541015610c9f5760405162461bcd60e51b8152602060048201526013602482015272496e73756666696369656e742073746f636b2160681b6044820152606401610406565b6000610cb660055483610f3790919063ffffffff16565b9050600554341015610d0a5760405162461bcd60e51b815260206004820152601a60248201527f496e73756666696369656e74207061796d656e742073656e74210000000000006044820152606401610406565b60098054906000610d1a836113f8565b9091555050600354610d2c9083610f18565b600390815560408051608081018252428152600060208083018281528385018881526005546060860190815233808652600d855287862060098054885290865288872097518855935160018801805467ffffffffffffffff19166001600160401b0390921691909117905591516002870155519490960193909355848252600e815290839020805460ff191690559054825185815291820186905282519093927fa2fc0bd51a5bc3589d1bbf031bceaabcd269febe30c17d6a0d84255c586004e1928290030190a35050565b610e00610e6e565b6001600160a01b038116610e655760405162461bcd60e51b815260206004820152602660248201527f4f776e61626c653a206e6577206f776e657220697320746865207a65726f206160448201526564647265737360d01b6064820152608401610406565b610ae381610ec8565b6000546001600160a01b031633146105ed5760405162461bcd60e51b815260206004820181905260248201527f4f776e61626c653a2063616c6c6572206973206e6f7420746865206f776e65726044820152606401610406565b600080546001600160a01b038381166001600160a01b0319831681178455604051919092169283917f8be0079c531659141344cd1fd0a4f28419497f9722a3daafe3b4186f6b6457e09190a35050565b6000610f248284611411565b9392505050565b6000610f248284611424565b6000610f248284611437565b6001600160401b0381168114610ae357600080fd5b600060208284031215610f6a57600080fd5b8135610f2481610f43565b634e487b7160e01b600052604160045260246000fd5b600082601f830112610f9c57600080fd5b81356001600160401b0380821115610fb657610fb6610f75565b604051601f8301601f19908116603f01168101908282118183101715610fde57610fde610f75565b81604052838152866020858801011115610ff757600080fd5b836020870160208301376000602085830101528094505050505092915050565b60006020828403121561102957600080fd5b81356001600160401b0381111561103f57600080fd5b61104b84828501610f8b565b949350505050565b6000815180845260005b818110156110795760208185018101518683018201520161105d565b506000602082860101526020601f19601f83011685010191505092915050565b602081526000610f246020830184611053565b80356001600160a01b03811681146110c357600080fd5b919050565b600080604083850312156110db57600080fd5b6110e4836110ac565b946020939093013593505050565b60006020828403121561110457600080fd5b610f24826110ac565b6000806040838503121561112057600080fd5b611129836110ac565b915060208301356001600160401b0381111561114457600080fd5b61115085828601610f8b565b9150509250929050565b60006020828403121561116c57600080fd5b813560028110610f2457600080fd5b60006020828403121561118d57600080fd5b5035919050565b634e487b7160e01b600052602160045260246000fd5b634e487b7160e01b600052603260045260246000fd5b600481106111d0576111d0611194565b9052565b60008282518085526020808601955060208260051b8401016020860160005b8481101561122157601f1986840301895261120f838351611053565b988401989250908301906001016111f3565b5090979650505050505050565b608081526112486080820183516001600160401b03169052565b6000602083015161126460a08401826001600160401b03169052565b5060408301516001600160401b0390811660c084015260608401511660e083015260808301516001600160a01b0381166101008085019190915260a085015191506101206112bc818601846001600160401b03169052565b60c086015192506101406112d2818701856111c0565b60e087015115156101608701528287015161018087019190915292506112fc6101c08601846111d4565b90860151858203607f19016101a0870152909250905061131c8282611053565b9150508281036020840152611335816000815260200190565b83810360408501526000815290506020810183810360608501526000815290506020810161104b565b60006020828403121561137057600080fd5b8151610f2481610f43565b600181811c9082168061138f57607f821691505b6020821081036113af57634e487b7160e01b600052602260045260246000fd5b50919050565b6001600160a01b038316815260408101600283106113d5576113d5611194565b8260208301529392505050565b634e487b7160e01b600052601160045260246000fd5b60006001820161140a5761140a6113e2565b5060010190565b8181038181111561070f5761070f6113e2565b8082018082111561070f5761070f6113e2565b808202811582820484141761070f5761070f6113e256fea2646970667358221220de86bf2d8d1a425a311a1751deb5dbaf29bafabc8ae3745a4eafb38b1ef5941064736f6c63430008180033",
  "devdoc": {
    "kind": "dev",
    "methods": {
      "owner()": {
        "details": "Returns the address of the current owner."
      },
      "renounceOwnership()": {
        "details": "Leaves the contract without owner. It will not be possible to call `onlyOwner` functions. Can only be called by the current owner. NOTE: Renouncing ownership will leave the contract without an owner, thereby disabling any functionality that is only available to the owner."
      },
      "transferOwnership(address)": {
        "details": "Transfers ownership of the contract to a new account (`newOwner`). Can only be called by the current owner."
      }
    },
    "version": 1
  },
  "userdoc": {
    "kind": "user",
    "methods": {},
    "version": 1
  },
  "storageLayout": {
    "storage": [
      {
        "astId": 638,
        "contract": "contracts/Store.sol:Product",
        "label": "_owner",
        "offset": 0,
        "slot": "0",
        "type": "t_address"
      },
      {
        "astId": 1177,
        "contract": "contracts/Store.sol:Product",
        "label": "spInstance",
        "offset": 0,
        "slot": "1",
        "type": "t_contract(ISP)495"
      },
      {
        "astId": 1179,
        "contract": "contracts/Store.sol:Product",
        "label": "schemaId_Invoice",
        "offset": 20,
        "slot": "1",
        "type": "t_uint64"
      },
      {
        "astId": 1181,
        "contract": "contracts/Store.sol:Product",
        "label": "schemaId_Comment",
        "offset": 0,
        "slot": "2",
        "type": "t_uint64"
      },
      {
        "astId": 1186,
        "contract": "contracts/Store.sol:Product",
        "label": "totalAvailableStoke",
        "offset": 0,
        "slot": "3",
        "type": "t_uint256"
      },
      {
        "astId": 1188,
        "contract": "contracts/Store.sol:Product",
        "label": "productName",
        "offset": 0,
        "slot": "4",
        "type": "t_string_storage"
      },
      {
        "astId": 1190,
        "contract": "contracts/Store.sol:Product",
        "label": "pricePerOne",
        "offset": 0,
        "slot": "5",
        "type": "t_uint256"
      },
      {
        "astId": 1192,
        "contract": "contracts/Store.sol:Product",
        "label": "discount",
        "offset": 0,
        "slot": "6",
        "type": "t_uint256"
      },
      {
        "astId": 1194,
        "contract": "contracts/Store.sol:Product",
        "label": "upVotes",
        "offset": 0,
        "slot": "7",
        "type": "t_uint256"
      },
      {
        "astId": 1196,
        "contract": "contracts/Store.sol:Product",
        "label": "downVotes",
        "offset": 0,
        "slot": "8",
        "type": "t_uint256"
      },
      {
        "astId": 1198,
        "contract": "contracts/Store.sol:Product",
        "label": "trxIndex",
        "offset": 0,
        "slot": "9",
        "type": "t_uint256"
      },
      {
        "astId": 1200,
        "contract": "contracts/Store.sol:Product",
        "label": "totalPurchases",
        "offset": 0,
        "slot": "10",
        "type": "t_uint256"
      },
      {
        "astId": 1202,
        "contract": "contracts/Store.sol:Product",
        "label": "ProductName",
        "offset": 0,
        "slot": "11",
        "type": "t_string_storage"
      },
      {
        "astId": 1204,
        "contract": "contracts/Store.sol:Product",
        "label": "StoreName",
        "offset": 0,
        "slot": "12",
        "type": "t_string_storage"
      },
      {
        "astId": 1211,
        "contract": "contracts/Store.sol:Product",
        "label": "customerHistory",
        "offset": 0,
        "slot": "13",
        "type": "t_mapping(t_address,t_mapping(t_uint256,t_struct(PurchaseDetails)1733_storage))"
      },
      {
        "astId": 1216,
        "contract": "contracts/Store.sol:Product",
        "label": "customerCurShoppingStatus",
        "offset": 0,
        "slot": "14",
        "type": "t_mapping(t_address,t_enum(ShoppingStatus)1721)"
      },
      {
        "astId": 1221,
        "contract": "contracts/Store.sol:Product",
        "label": "customerVote",
        "offset": 0,
        "slot": "15",
        "type": "t_mapping(t_address,t_enum(VotesType)1724)"
      },
      {
        "astId": 1226,
        "contract": "contracts/Store.sol:Product",
        "label": "buyerCommented",
        "offset": 0,
        "slot": "16",
        "type": "t_mapping(t_address,t_struct(CommentDetails)1738_storage)"
      }
    ],
    "types": {
      "t_address": {
        "encoding": "inplace",
        "label": "address",
        "numberOfBytes": "20"
      },
      "t_bool": {
        "encoding": "inplace",
        "label": "bool",
        "numberOfBytes": "1"
      },
      "t_contract(ISP)495": {
        "encoding": "inplace",
        "label": "contract ISP",
        "numberOfBytes": "20"
      },
      "t_enum(ShoppingStatus)1721": {
        "encoding": "inplace",
        "label": "enum ShoppingStatus",
        "numberOfBytes": "1"
      },
      "t_enum(VotesType)1724": {
        "encoding": "inplace",
        "label": "enum VotesType",
        "numberOfBytes": "1"
      },
      "t_mapping(t_address,t_enum(ShoppingStatus)1721)": {
        "encoding": "mapping",
        "key": "t_address",
        "label": "mapping(address => enum ShoppingStatus)",
        "numberOfBytes": "32",
        "value": "t_enum(ShoppingStatus)1721"
      },
      "t_mapping(t_address,t_enum(VotesType)1724)": {
        "encoding": "mapping",
        "key": "t_address",
        "label": "mapping(address => enum VotesType)",
        "numberOfBytes": "32",
        "value": "t_enum(VotesType)1724"
      },
      "t_mapping(t_address,t_mapping(t_uint256,t_struct(PurchaseDetails)1733_storage))": {
        "encoding": "mapping",
        "key": "t_address",
        "label": "mapping(address => mapping(uint256 => struct PurchaseDetails))",
        "numberOfBytes": "32",
        "value": "t_mapping(t_uint256,t_struct(PurchaseDetails)1733_storage)"
      },
      "t_mapping(t_address,t_struct(CommentDetails)1738_storage)": {
        "encoding": "mapping",
        "key": "t_address",
        "label": "mapping(address => struct CommentDetails)",
        "numberOfBytes": "32",
        "value": "t_struct(CommentDetails)1738_storage"
      },
      "t_mapping(t_uint256,t_struct(PurchaseDetails)1733_storage)": {
        "encoding": "mapping",
        "key": "t_uint256",
        "label": "mapping(uint256 => struct PurchaseDetails)",
        "numberOfBytes": "32",
        "value": "t_struct(PurchaseDetails)1733_storage"
      },
      "t_string_storage": {
        "encoding": "bytes",
        "label": "string",
        "numberOfBytes": "32"
      },
      "t_struct(CommentDetails)1738_storage": {
        "encoding": "inplace",
        "label": "struct CommentDetails",
        "members": [
          {
            "astId": 1735,
            "contract": "contracts/Store.sol:Product",
            "label": "attestationId",
            "offset": 0,
            "slot": "0",
            "type": "t_uint64"
          },
          {
            "astId": 1737,
            "contract": "contracts/Store.sol:Product",
            "label": "hasCommented",
            "offset": 8,
            "slot": "0",
            "type": "t_bool"
          }
        ],
        "numberOfBytes": "32"
      },
      "t_struct(PurchaseDetails)1733_storage": {
        "encoding": "inplace",
        "label": "struct PurchaseDetails",
        "members": [
          {
            "astId": 1726,
            "contract": "contracts/Store.sol:Product",
            "label": "timeOfPurchase",
            "offset": 0,
            "slot": "0",
            "type": "t_uint256"
          },
          {
            "astId": 1728,
            "contract": "contracts/Store.sol:Product",
            "label": "attestationId",
            "offset": 0,
            "slot": "1",
            "type": "t_uint64"
          },
          {
            "astId": 1730,
            "contract": "contracts/Store.sol:Product",
            "label": "quantity",
            "offset": 0,
            "slot": "2",
            "type": "t_uint256"
          },
          {
            "astId": 1732,
            "contract": "contracts/Store.sol:Product",
            "label": "price",
            "offset": 0,
            "slot": "3",
            "type": "t_uint256"
          }
        ],
        "numberOfBytes": "128"
      },
      "t_uint256": {
        "encoding": "inplace",
        "label": "uint256",
        "numberOfBytes": "32"
      },
      "t_uint64": {
        "encoding": "inplace",
        "label": "uint64",
        "numberOfBytes": "8"
      }
    }
  }
}