{
  "address": "0xaf3950edA7916e2B2957f0e9E769c523CfB9B082",
  "abi": [
    {
      "inputs": [
        {
          "internalType": "uint256",
          "name": "_pricePerOne",
          "type": "uint256"
        },
        {
          "internalType": "uint256",
          "name": "_totalAvailableStoke",
          "type": "uint256"
        },
        {
          "internalType": "string",
          "name": "_productName",
          "type": "string"
        },
        {
          "internalType": "string",
          "name": "_storeName",
          "type": "string"
        },
        {
          "internalType": "string",
          "name": "_productImageUrl",
          "type": "string"
        }
      ],
      "stateMutability": "nonpayable",
      "type": "constructor"
    },
    {
      "anonymous": false,
      "inputs": [
        {
          "indexed": true,
          "internalType": "address",
          "name": "buyer",
          "type": "address"
        },
        {
          "indexed": false,
          "internalType": "uint256",
          "name": "price",
          "type": "uint256"
        },
        {
          "indexed": false,
          "internalType": "uint256",
          "name": "quantity",
          "type": "uint256"
        },
        {
          "indexed": true,
          "internalType": "uint256",
          "name": "index",
          "type": "uint256"
        }
      ],
      "name": "BuyEvent",
      "type": "event"
    },
    {
      "anonymous": false,
      "inputs": [
        {
          "indexed": true,
          "internalType": "address",
          "name": "buyer",
          "type": "address"
        },
        {
          "indexed": false,
          "internalType": "uint64",
          "name": "attestationId",
          "type": "uint64"
        }
      ],
      "name": "CommentEvent",
      "type": "event"
    },
    {
      "anonymous": false,
      "inputs": [
        {
          "indexed": true,
          "internalType": "address",
          "name": "buyer",
          "type": "address"
        },
        {
          "indexed": true,
          "internalType": "uint64",
          "name": "attestionId",
          "type": "uint64"
        }
      ],
      "name": "DeliveredEvent",
      "type": "event"
    },
    {
      "anonymous": false,
      "inputs": [
        {
          "indexed": true,
          "internalType": "address",
          "name": "previousOwner",
          "type": "address"
        },
        {
          "indexed": true,
          "internalType": "address",
          "name": "newOwner",
          "type": "address"
        }
      ],
      "name": "OwnershipTransferred",
      "type": "event"
    },
    {
      "anonymous": false,
      "inputs": [
        {
          "indexed": false,
          "internalType": "address",
          "name": "buyer",
          "type": "address"
        },
        {
          "indexed": false,
          "internalType": "enum VotesType",
          "name": "typeOFVote",
          "type": "uint8"
        }
      ],
      "name": "VoteEvent",
      "type": "event"
    },
    {
      "inputs": [],
      "name": "StoreName",
      "outputs": [
        {
          "internalType": "string",
          "name": "",
          "type": "string"
        }
      ],
      "stateMutability": "view",
      "type": "function"
    },
    {
      "inputs": [
        {
          "internalType": "uint64",
          "name": "quantity",
          "type": "uint64"
        }
      ],
      "name": "buy",
      "outputs": [],
      "stateMutability": "payable",
      "type": "function"
    },
    {
      "inputs": [
        {
          "internalType": "uint64",
          "name": "trxIndex",
          "type": "uint64"
        }
      ],
      "name": "buyerByTransactionIndex",
      "outputs": [
        {
          "internalType": "address",
          "name": "buyer",
          "type": "address"
        }
      ],
      "stateMutability": "view",
      "type": "function"
    },
    {
      "inputs": [
        {
          "internalType": "address",
          "name": "customer",
          "type": "address"
        }
      ],
      "name": "buyerCommented",
      "outputs": [
        {
          "internalType": "uint64",
          "name": "attestationId",
          "type": "uint64"
        },
        {
          "internalType": "bool",
          "name": "hasCommented",
          "type": "bool"
        }
      ],
      "stateMutability": "view",
      "type": "function"
    },
    {
      "inputs": [
        {
          "internalType": "string",
          "name": "comment",
          "type": "string"
        }
      ],
      "name": "comment",
      "outputs": [],
      "stateMutability": "nonpayable",
      "type": "function"
    },
    {
      "inputs": [
        {
          "internalType": "address",
          "name": "customer",
          "type": "address"
        }
      ],
      "name": "customerCurShoppingStatus",
      "outputs": [
        {
          "internalType": "enum ShoppingStatus",
          "name": "",
          "type": "uint8"
        }
      ],
      "stateMutability": "view",
      "type": "function"
    },
    {
      "inputs": [
        {
          "internalType": "address",
          "name": "customer",
          "type": "address"
        },
        {
          "internalType": "uint64",
          "name": "trxIndex",
          "type": "uint64"
        }
      ],
      "name": "customerHistory",
      "outputs": [
        {
          "internalType": "uint256",
          "name": "timeOfPurchase",
          "type": "uint256"
        },
        {
          "internalType": "uint64",
          "name": "attestationId",
          "type": "uint64"
        },
        {
          "internalType": "uint64",
          "name": "quantity",
          "type": "uint64"
        },
        {
          "internalType": "uint256",
          "name": "price",
          "type": "uint256"
        }
      ],
      "stateMutability": "view",
      "type": "function"
    },
    {
      "inputs": [
        {
          "internalType": "address",
          "name": "customer",
          "type": "address"
        }
      ],
      "name": "customerVote",
      "outputs": [
        {
          "internalType": "enum VotesType",
          "name": "",
          "type": "uint8"
        }
      ],
      "stateMutability": "view",
      "type": "function"
    },
    {
      "inputs": [
        {
          "internalType": "uint64",
          "name": "index",
          "type": "uint64"
        },
        {
          "internalType": "address",
          "name": "buyerAddress",
          "type": "address"
        }
      ],
      "name": "deliveredCompleted",
      "outputs": [],
      "stateMutability": "nonpayable",
      "type": "function"
    },
    {
      "inputs": [],
      "name": "discount",
      "outputs": [
        {
          "internalType": "uint256",
          "name": "",
          "type": "uint256"
        }
      ],
      "stateMutability": "view",
      "type": "function"
    },
    {
      "inputs": [],
      "name": "downVotes",
      "outputs": [
        {
          "internalType": "uint64",
          "name": "",
          "type": "uint64"
        }
      ],
      "stateMutability": "view",
      "type": "function"
    },
    {
      "inputs": [
        {
          "internalType": "address",
          "name": "buyer",
          "type": "address"
        },
        {
          "internalType": "uint64",
          "name": "index",
          "type": "uint64"
        }
      ],
      "name": "getCustomerDetails",
      "outputs": [
        {
          "components": [
            {
              "internalType": "uint256",
              "name": "timeOfPurchase",
              "type": "uint256"
            },
            {
              "internalType": "uint64",
              "name": "attestationId",
              "type": "uint64"
            },
            {
              "internalType": "uint64",
              "name": "quantity",
              "type": "uint64"
            },
            {
              "internalType": "uint256",
              "name": "price",
              "type": "uint256"
            }
          ],
          "internalType": "struct PurchaseDetails",
          "name": "",
          "type": "tuple"
        }
      ],
      "stateMutability": "view",
      "type": "function"
    },
    {
      "inputs": [],
      "name": "owner",
      "outputs": [
        {
          "internalType": "address",
          "name": "",
          "type": "address"
        }
      ],
      "stateMutability": "view",
      "type": "function"
    },
    {
      "inputs": [],
      "name": "pricePerOne",
      "outputs": [
        {
          "internalType": "uint256",
          "name": "",
          "type": "uint256"
        }
      ],
      "stateMutability": "view",
      "type": "function"
    },
    {
      "inputs": [],
      "name": "productImageUrl",
      "outputs": [
        {
          "internalType": "string",
          "name": "",
          "type": "string"
        }
      ],
      "stateMutability": "view",
      "type": "function"
    },
    {
      "inputs": [],
      "name": "productName",
      "outputs": [
        {
          "internalType": "string",
          "name": "",
          "type": "string"
        }
      ],
      "stateMutability": "view",
      "type": "function"
    },
    {
      "inputs": [],
      "name": "renounceOwnership",
      "outputs": [],
      "stateMutability": "nonpayable",
      "type": "function"
    },
    {
      "inputs": [],
      "name": "schemaId_Comment",
      "outputs": [
        {
          "internalType": "uint64",
          "name": "",
          "type": "uint64"
        }
      ],
      "stateMutability": "view",
      "type": "function"
    },
    {
      "inputs": [],
      "name": "schemaId_Invoice",
      "outputs": [
        {
          "internalType": "uint64",
          "name": "",
          "type": "uint64"
        }
      ],
      "stateMutability": "view",
      "type": "function"
    },
    {
      "inputs": [
        {
          "internalType": "uint64",
          "name": "schemaId_",
          "type": "uint64"
        }
      ],
      "name": "setCommentSchemaID",
      "outputs": [],
      "stateMutability": "nonpayable",
      "type": "function"
    },
    {
      "inputs": [
        {
          "internalType": "uint64",
          "name": "schemaId_",
          "type": "uint64"
        }
      ],
      "name": "setInvoicetSchemaID",
      "outputs": [],
      "stateMutability": "nonpayable",
      "type": "function"
    },
    {
      "inputs": [
        {
          "internalType": "address",
          "name": "instance",
          "type": "address"
        }
      ],
      "name": "setSPInstance",
      "outputs": [],
      "stateMutability": "nonpayable",
      "type": "function"
    },
    {
      "inputs": [],
      "name": "spInstance",
      "outputs": [
        {
          "internalType": "contract ISP",
          "name": "",
          "type": "address"
        }
      ],
      "stateMutability": "view",
      "type": "function"
    },
    {
      "inputs": [],
      "name": "totalAvailableStoke",
      "outputs": [
        {
          "internalType": "uint256",
          "name": "",
          "type": "uint256"
        }
      ],
      "stateMutability": "view",
      "type": "function"
    },
    {
      "inputs": [],
      "name": "totalPurchases",
      "outputs": [
        {
          "internalType": "uint256",
          "name": "",
          "type": "uint256"
        }
      ],
      "stateMutability": "view",
      "type": "function"
    },
    {
      "inputs": [
        {
          "internalType": "address",
          "name": "newOwner",
          "type": "address"
        }
      ],
      "name": "transferOwnership",
      "outputs": [],
      "stateMutability": "nonpayable",
      "type": "function"
    },
    {
      "inputs": [],
      "name": "trxIndex",
      "outputs": [
        {
          "internalType": "uint64",
          "name": "",
          "type": "uint64"
        }
      ],
      "stateMutability": "view",
      "type": "function"
    },
    {
      "inputs": [],
      "name": "upVotes",
      "outputs": [
        {
          "internalType": "uint64",
          "name": "",
          "type": "uint64"
        }
      ],
      "stateMutability": "view",
      "type": "function"
    },
    {
      "inputs": [
        {
          "internalType": "enum VotesType",
          "name": "typeOFVote",
          "type": "uint8"
        }
      ],
      "name": "vote",
      "outputs": [],
      "stateMutability": "nonpayable",
      "type": "function"
    }
  ],
  "transactionHash": "0x8b3a5ff86b748afcd59db12a493b8cbd676828d8c702dcd3fdfc6f003b8d5bfe",
  "args": [
    1000000000000,
    1000,
    "Iphone 12",
    "Apple",
    "/iphone.png"
  ],
  "numDeployments": 5,
  "solcInputHash": "50c15134907d35dc049e5f68907244ff",
  "bytecode": "0x60806040523480156200001157600080fd5b5060405162001d4b38038062001d4b833981016040819052620000349162000199565b6200003f3362000081565b600485905560038490556008620000578482620002d0565b506009620000668382620002d0565b50600a620000758282620002d0565b5050505050506200039c565b600080546001600160a01b038381166001600160a01b0319831681178455604051919092169283917f8be0079c531659141344cd1fd0a4f28419497f9722a3daafe3b4186f6b6457e09190a35050565b634e487b7160e01b600052604160045260246000fd5b600082601f830112620000f957600080fd5b81516001600160401b0380821115620001165762000116620000d1565b604051601f8301601f19908116603f01168101908282118183101715620001415762000141620000d1565b81604052838152602092508660208588010111156200015f57600080fd5b600091505b8382101562000183578582018301518183018401529082019062000164565b6000602085830101528094505050505092915050565b600080600080600060a08688031215620001b257600080fd5b85516020870151604088015191965094506001600160401b0380821115620001d957600080fd5b620001e789838a01620000e7565b94506060880151915080821115620001fe57600080fd5b6200020c89838a01620000e7565b935060808801519150808211156200022357600080fd5b506200023288828901620000e7565b9150509295509295909350565b600181811c908216806200025457607f821691505b6020821081036200027557634e487b7160e01b600052602260045260246000fd5b50919050565b601f821115620002cb576000816000526020600020601f850160051c81016020861015620002a65750805b601f850160051c820191505b81811015620002c757828155600101620002b2565b5050505b505050565b81516001600160401b03811115620002ec57620002ec620000d1565b6200030481620002fd84546200023f565b846200027b565b602080601f8311600181146200033c5760008415620003235750858301515b600019600386901b1c1916600185901b178555620002c7565b600085815260208120601f198616915b828110156200036d578886015182559484019460019091019084016200034c565b50858210156200038c5787850151600019600388901b60f8161c191681555b5050505050600190811b01905550565b61199f80620003ac6000396000f3fe6080604052600436106101c25760003560e01c806377cd3a62116100f7578063b3f98adc11610095578063e42c4ede11610064578063e42c4ede146105b1578063f190a4b6146105e1578063f2fde38b14610617578063f79ce9e81461063757600080fd5b8063b3f98adc146104d3578063c2a2db90146104f3578063d16381d014610530578063e3626bc01461055057600080fd5b80638da5cb5b116100d15780638da5cb5b1461043a5780638e9d660f1461046c578063a1b9e1e61461048c578063a8c5dc33146104b357600080fd5b806377cd3a62146103e55780637f7650eb146104055780638d3a622d1461041a57600080fd5b8063456ecb20116101645780635962a9411161013e5780635962a941146103845780636b6f4a9d1461039a5780636f072fbe146103b0578063715018a6146103d057600080fd5b8063456ecb2014610320578063535483f014610336578063576c6d2b1461035d57600080fd5b8063215adc4a116101a0578063215adc4a1461024a57806329c7ed791461025f578063303d5f9f146102eb5780633f7fb2211461030057600080fd5b80630a5a7642146101c75780630a985930146101f0578063184b969514610228575b600080fd5b3480156101d357600080fd5b506101dd60035481565b6040519081526020015b60405180910390f35b3480156101fc57600080fd5b50600654610210906001600160401b031681565b6040516001600160401b0390911681526020016101e7565b34801561023457600080fd5b5061023d610698565b6040516101e791906114b4565b61025d6102583660046114dc565b610726565b005b34801561026b57600080fd5b506102bb61027a366004611515565b600b60209081526000928352604080842090915290825290208054600182015460029092015490916001600160401b0380821692600160401b909204169084565b6040516101e794939291909384526001600160401b03928316602085015291166040830152606082015260800190565b3480156102f757600080fd5b5061023d6109ee565b34801561030c57600080fd5b5061025d61031b3660046114dc565b6109fb565b34801561032c57600080fd5b506101dd60045481565b34801561034257600080fd5b5060065461021090600160801b90046001600160401b031681565b34801561036957600080fd5b5060015461021090600160a01b90046001600160401b031681565b34801561039057600080fd5b506101dd60075481565b3480156103a657600080fd5b506101dd60055481565b3480156103bc57600080fd5b50600254610210906001600160401b031681565b3480156103dc57600080fd5b5061025d610a26565b3480156103f157600080fd5b5061025d61040036600461154c565b610a3a565b34801561041157600080fd5b5061023d610d6d565b34801561042657600080fd5b5061025d610435366004611597565b610d7a565b34801561044657600080fd5b506000546001600160a01b03165b6040516001600160a01b0390911681526020016101e7565b34801561047857600080fd5b5061025d610487366004611647565b610fc8565b34801561049857600080fd5b5060065461021090600160401b90046001600160401b031681565b3480156104bf57600080fd5b50600154610454906001600160a01b031681565b3480156104df57600080fd5b5061025d6104ee366004611662565b610ff2565b3480156104ff57600080fd5b5061052361050e366004611647565b600d6020526000908152604090205460ff1681565b6040516101e791906116a9565b34801561053c57600080fd5b5061025d61054b3660046114dc565b611264565b34801561055c57600080fd5b5061059261056b366004611647565b600f602052600090815260409020546001600160401b03811690600160401b900460ff1682565b604080516001600160401b0390931683529015156020830152016101e7565b3480156105bd57600080fd5b506105236105cc366004611647565b600e6020526000908152604090205460ff1681565b3480156105ed57600080fd5b506104546105fc3660046114dc565b600c602052600090815260409020546001600160a01b031681565b34801561062357600080fd5b5061025d610632366004611647565b611299565b34801561064357600080fd5b50610657610652366004611515565b61130f565b60408051825181526020808401516001600160401b0390811691830191909152838301511691810191909152606091820151918101919091526080016101e7565b600a80546106a5906116bc565b80601f01602080910402602001604051908101604052809291908181526020018280546106d1906116bc565b801561071e5780601f106106f35761010080835404028352916020019161071e565b820191906000526020600020905b81548152906001019060200180831161070157829003601f168201915b505050505081565b336000908152600d602052604081205460ff16600281111561074a5761074a611683565b146107b55760405162461bcd60e51b815260206004820152603060248201527f596f752063616e277420706c61636520616e206f72646572207768696c65206160448201526f77616974696e672064656c697665727960801b60648201526084015b60405180910390fd5b806001600160401b031660035410156108065760405162461bcd60e51b8152602060048201526013602482015272496e73756666696369656e742073746f636b2160681b60448201526064016107ac565b6000610826600454836001600160401b031661139990919063ffffffff16565b905060045434101561087a5760405162461bcd60e51b815260206004820152601a60248201527f496e73756666696369656e74207061796d656e742073656e742100000000000060448201526064016107ac565b60068054600160801b90046001600160401b031690601061089a8361170c565b91906101000a8154816001600160401b0302191690836001600160401b03160217905550506108dd826001600160401b03166003546113ac90919063ffffffff16565b60035560408051608081018252428152600060208083018281526001600160401b038781168587018181526004546060880190815233808852600b875289882060068054600160801b9081900488168b529189528b8a209a518b55965160018b01805495518816600160401b026fffffffffffffffffffffffffffffffff1990961691881691909117949094179093559051600290980197909755835481900483168652600c855287862080546001600160a01b03191688179055868652600d855294879020805460ff19169055915486518881529384019290925285519390910416937fa2fc0bd51a5bc3589d1bbf031bceaabcd269febe30c17d6a0d84255c586004e192918290030190a35050565b600980546106a5906116bc565b610a036113b8565b6002805467ffffffffffffffff19166001600160401b0392909216919091179055565b610a2e6113b8565b610a386000611412565b565b610a426113b8565b6006546001600160401b03600160801b90910481169083161115610ab35760405162461bcd60e51b815260206004820152602260248201527f7472616e73616374696f6e20686973746f727920646f6573206e6f74206578696044820152611cdd60f21b60648201526084016107ac565b6001600160401b0382166000908152600c60205260408120546001600160a01b0316906001600160a01b0382166000908152600d602052604090205460ff166002811115610b0357610b03611683565b14610b455760405162461bcd60e51b8152602060048201526012602482015271139bc8189d5e481bdc99195c88199bdd5b9960721b60448201526064016107ac565b6040805180820182526001600160a01b0384168082526001600160401b0386166020808401918252845190810192909252518184015282518082038401815260016060830181815260a08401909552929390926000926080015b6060815260200190600190039081610b9f57905050604080516001600160a01b03871660208201529192500160405160208183030381529060405281600081518110610bed57610bed611732565b6020908102919091018101919091526001600160a01b038581166000908152600d83526040808220805460ff1916600190811790915581516101408101835290546001600160401b03600160a01b82041682529481018390528082018390526060810183905230608082015260a0810183905260c0810183905260e0810183905261010081018690526101208101879052905163b82916cb60e01b815290939192919091169063b82916cb90610ca79085906004016117b6565b6020604051808303816000875af1158015610cc6573d6000803e3d6000fd5b505050506040513d601f19601f82011682018060405250810190610cea91906118e9565b336000908152600b60209081526040808320600654600160801b90046001600160401b0390811685529252808320600101805467ffffffffffffffff1916928516928317905551929350916001600160a01b038916917f37520ac2a4ab880e98ce03e67a94d1158eb0636fc92f3e74b088fce9d990eb7491a35050505050505050565b600880546106a5906116bc565b6001336000908152600d602052604090205460ff166002811115610da057610da0611683565b03610dff5760405162461bcd60e51b815260206004820152602960248201527f596f75206e65656420746f207573652070726f64756374206265666f726520636044820152686f6d6d656e74696e6760b81b60648201526084016107ac565b604080516001808252818301909252600091816020015b6060815260200190600190039081610e1657905050604080513360208201529192500160405160208183030381529060405281600081518110610e5b57610e5b611732565b60209081029190910181019190915260408051610140810182526002546001600160401b0316815260009281018390528082018390526060810183905230608082015260a0810183905260c0810183905260e0810183905261010081018490526101208101859052600154915163b82916cb60e01b8152859391926001600160a01b03169063b82916cb90610ef49085906004016117b6565b6020604051808303816000875af1158015610f13573d6000803e3d6000fd5b505050506040513d601f19601f82011682018060405250810190610f3791906118e9565b6040805180820182526001600160401b0383811680835260016020808501918252336000818152600f83528790209551865493511515600160401b0268ffffffffffffffffff199094169516949094179190911790935592519283529293507f38e7ac93da30e97d39a4baa1731920b1ad90ffbce17f2b56368e2db812d502d9910160405180910390a25050505050565b610fd06113b8565b600180546001600160a01b0319166001600160a01b0392909216919091179055565b336000908152600b602090815260408083206006546001600160401b03600160801b909104811685529252909120600101541661108f5760405162461bcd60e51b815260206004820152603560248201527f596f752063616e206e6f7420766f746520756e74696c20796f752070726f647560448201527418dd081a185cc81899595b8819195b1a5d995c9959605a1b60648201526084016107ac565b6001336000908152600e602052604090205460ff1660028111156110b5576110b5611683565b036111125760018160028111156110ce576110ce611683565b036110d65750565b6006546110ed906001600160401b031660016113ac565b5060065461110c90600160401b90046001600160401b03166001611462565b50611228565b6002336000908152600e602052604090205460ff16600281111561113857611138611683565b0361118f57600181600281111561115157611151611683565b0361118c5760065461116d906001600160401b03166001611462565b5060065461110c90600160401b90046001600160401b031660016113ac565b50565b336000908152600e60205260409020805482919060ff191660018360028111156111bb576111bb611683565b021790555060018160028111156111d4576111d4611683565b036111f05760065461116d906001600160401b03166001611462565b60065461120e90600160401b90046001600160401b031660016113ac565b50600654611226906001600160401b03166001611462565b505b7fb14236643441ae89f4e8db470337cc30657235a1e93464e4c0f919487f9af0e23382604051611259929190611906565b60405180910390a150565b61126c6113b8565b600180546001600160401b03909216600160a01b0267ffffffffffffffff60a01b19909216919091179055565b6112a16113b8565b6001600160a01b0381166113065760405162461bcd60e51b815260206004820152602660248201527f4f776e61626c653a206e6577206f776e657220697320746865207a65726f206160448201526564647265737360d01b60648201526084016107ac565b61118c81611412565b60408051608080820183526000808352602080840182905283850182905260609384018290526001600160a01b0387168252600b81528482206001600160401b038781168452908252918590208551938401865280548452600181015480841692850192909252600160401b90910490911693820193909352600290920154908201525b92915050565b60006113a5828461192c565b9392505050565b60006113a58284611943565b6000546001600160a01b03163314610a385760405162461bcd60e51b815260206004820181905260248201527f4f776e61626c653a2063616c6c6572206973206e6f7420746865206f776e657260448201526064016107ac565b600080546001600160a01b038381166001600160a01b0319831681178455604051919092169283917f8be0079c531659141344cd1fd0a4f28419497f9722a3daafe3b4186f6b6457e09190a35050565b60006113a58284611956565b6000815180845260005b8181101561149457602081850181015186830182015201611478565b506000602082860101526020601f19601f83011685010191505092915050565b6020815260006113a5602083018461146e565b6001600160401b038116811461118c57600080fd5b6000602082840312156114ee57600080fd5b81356113a5816114c7565b80356001600160a01b038116811461151057600080fd5b919050565b6000806040838503121561152857600080fd5b611531836114f9565b91506020830135611541816114c7565b809150509250929050565b6000806040838503121561155f57600080fd5b823561156a816114c7565b9150611578602084016114f9565b90509250929050565b634e487b7160e01b600052604160045260246000fd5b6000602082840312156115a957600080fd5b81356001600160401b03808211156115c057600080fd5b818401915084601f8301126115d457600080fd5b8135818111156115e6576115e6611581565b604051601f8201601f19908116603f0116810190838211818310171561160e5761160e611581565b8160405282815287602084870101111561162757600080fd5b826020860160208301376000928101602001929092525095945050505050565b60006020828403121561165957600080fd5b6113a5826114f9565b60006020828403121561167457600080fd5b8135600381106113a557600080fd5b634e487b7160e01b600052602160045260246000fd5b6003811061118c5761118c611683565b602081016116b683611699565b91905290565b600181811c908216806116d057607f821691505b6020821081036116f057634e487b7160e01b600052602260045260246000fd5b50919050565b634e487b7160e01b600052601160045260246000fd5b60006001600160401b03808316818103611728576117286116f6565b6001019392505050565b634e487b7160e01b600052603260045260246000fd5b6004811061175857611758611683565b9052565b60008282518085526020808601955060208260051b8401016020860160005b848110156117a957601f1986840301895261179783835161146e565b9884019892509083019060010161177b565b5090979650505050505050565b608081526117d06080820183516001600160401b03169052565b600060208301516117ec60a08401826001600160401b03169052565b5060408301516001600160401b0390811660c084015260608401511660e083015260808301516001600160a01b0381166101008085019190915260a08501519150610120611844818601846001600160401b03169052565b60c0860151925061014061185a81870185611748565b60e087015115156101608701528287015161018087019190915292506118846101c086018461175c565b90860151858203607f19016101a087015290925090506118a4828261146e565b91505082810360208401526118bd816000815260200190565b838103604085015260008152905060208101838103606085015260008152905060208101949350505050565b6000602082840312156118fb57600080fd5b81516113a5816114c7565b6001600160a01b03831681526040810161191f83611699565b8260208301529392505050565b8082028115828204841417611393576113936116f6565b81810381811115611393576113936116f6565b80820180821115611393576113936116f656fea2646970667358221220243ecb1c527b72180c9901874c7954aa70361cc0ccb56ab4ee489c0c45de1bbf64736f6c63430008180033",
  "devdoc": {
    "kind": "dev",
    "methods": {
      "owner()": {
        "details": "Returns the address of the current owner."
      },
      "renounceOwnership()": {
        "details": "Leaves the contract without owner. It will not be possible to call `onlyOwner` functions. Can only be called by the current owner. NOTE: Renouncing ownership will leave the contract without an owner, thereby disabling any functionality that is only available to the owner."
      },
      "transferOwnership(address)": {
        "details": "Transfers ownership of the contract to a new account (`newOwner`). Can only be called by the current owner."
      }
    },
    "version": 1
  },
  "userdoc": {
    "kind": "user",
    "methods": {},
    "version": 1
  },
  "storageLayout": {
    "storage": [
      {
        "astId": 638,
        "contract": "contracts/Store.sol:Product",
        "label": "_owner",
        "offset": 0,
        "slot": "0",
        "type": "t_address"
      },
      {
        "astId": 1182,
        "contract": "contracts/Store.sol:Product",
        "label": "spInstance",
        "offset": 0,
        "slot": "1",
        "type": "t_contract(ISP)495"
      },
      {
        "astId": 1184,
        "contract": "contracts/Store.sol:Product",
        "label": "schemaId_Invoice",
        "offset": 20,
        "slot": "1",
        "type": "t_uint64"
      },
      {
        "astId": 1186,
        "contract": "contracts/Store.sol:Product",
        "label": "schemaId_Comment",
        "offset": 0,
        "slot": "2",
        "type": "t_uint64"
      },
      {
        "astId": 1194,
        "contract": "contracts/Store.sol:Product",
        "label": "totalAvailableStoke",
        "offset": 0,
        "slot": "3",
        "type": "t_uint256"
      },
      {
        "astId": 1196,
        "contract": "contracts/Store.sol:Product",
        "label": "pricePerOne",
        "offset": 0,
        "slot": "4",
        "type": "t_uint256"
      },
      {
        "astId": 1198,
        "contract": "contracts/Store.sol:Product",
        "label": "discount",
        "offset": 0,
        "slot": "5",
        "type": "t_uint256"
      },
      {
        "astId": 1200,
        "contract": "contracts/Store.sol:Product",
        "label": "upVotes",
        "offset": 0,
        "slot": "6",
        "type": "t_uint64"
      },
      {
        "astId": 1202,
        "contract": "contracts/Store.sol:Product",
        "label": "downVotes",
        "offset": 8,
        "slot": "6",
        "type": "t_uint64"
      },
      {
        "astId": 1204,
        "contract": "contracts/Store.sol:Product",
        "label": "trxIndex",
        "offset": 16,
        "slot": "6",
        "type": "t_uint64"
      },
      {
        "astId": 1206,
        "contract": "contracts/Store.sol:Product",
        "label": "totalPurchases",
        "offset": 0,
        "slot": "7",
        "type": "t_uint256"
      },
      {
        "astId": 1208,
        "contract": "contracts/Store.sol:Product",
        "label": "productName",
        "offset": 0,
        "slot": "8",
        "type": "t_string_storage"
      },
      {
        "astId": 1210,
        "contract": "contracts/Store.sol:Product",
        "label": "StoreName",
        "offset": 0,
        "slot": "9",
        "type": "t_string_storage"
      },
      {
        "astId": 1212,
        "contract": "contracts/Store.sol:Product",
        "label": "productImageUrl",
        "offset": 0,
        "slot": "10",
        "type": "t_string_storage"
      },
      {
        "astId": 1219,
        "contract": "contracts/Store.sol:Product",
        "label": "customerHistory",
        "offset": 0,
        "slot": "11",
        "type": "t_mapping(t_address,t_mapping(t_uint64,t_struct(PurchaseDetails)1823_storage))"
      },
      {
        "astId": 1223,
        "contract": "contracts/Store.sol:Product",
        "label": "buyerByTransactionIndex",
        "offset": 0,
        "slot": "12",
        "type": "t_mapping(t_uint64,t_address)"
      },
      {
        "astId": 1228,
        "contract": "contracts/Store.sol:Product",
        "label": "customerCurShoppingStatus",
        "offset": 0,
        "slot": "13",
        "type": "t_mapping(t_address,t_enum(ShoppingStatus)1810)"
      },
      {
        "astId": 1233,
        "contract": "contracts/Store.sol:Product",
        "label": "customerVote",
        "offset": 0,
        "slot": "14",
        "type": "t_mapping(t_address,t_enum(VotesType)1814)"
      },
      {
        "astId": 1238,
        "contract": "contracts/Store.sol:Product",
        "label": "buyerCommented",
        "offset": 0,
        "slot": "15",
        "type": "t_mapping(t_address,t_struct(CommentDetails)1828_storage)"
      }
    ],
    "types": {
      "t_address": {
        "encoding": "inplace",
        "label": "address",
        "numberOfBytes": "20"
      },
      "t_bool": {
        "encoding": "inplace",
        "label": "bool",
        "numberOfBytes": "1"
      },
      "t_contract(ISP)495": {
        "encoding": "inplace",
        "label": "contract ISP",
        "numberOfBytes": "20"
      },
      "t_enum(ShoppingStatus)1810": {
        "encoding": "inplace",
        "label": "enum ShoppingStatus",
        "numberOfBytes": "1"
      },
      "t_enum(VotesType)1814": {
        "encoding": "inplace",
        "label": "enum VotesType",
        "numberOfBytes": "1"
      },
      "t_mapping(t_address,t_enum(ShoppingStatus)1810)": {
        "encoding": "mapping",
        "key": "t_address",
        "label": "mapping(address => enum ShoppingStatus)",
        "numberOfBytes": "32",
        "value": "t_enum(ShoppingStatus)1810"
      },
      "t_mapping(t_address,t_enum(VotesType)1814)": {
        "encoding": "mapping",
        "key": "t_address",
        "label": "mapping(address => enum VotesType)",
        "numberOfBytes": "32",
        "value": "t_enum(VotesType)1814"
      },
      "t_mapping(t_address,t_mapping(t_uint64,t_struct(PurchaseDetails)1823_storage))": {
        "encoding": "mapping",
        "key": "t_address",
        "label": "mapping(address => mapping(uint64 => struct PurchaseDetails))",
        "numberOfBytes": "32",
        "value": "t_mapping(t_uint64,t_struct(PurchaseDetails)1823_storage)"
      },
      "t_mapping(t_address,t_struct(CommentDetails)1828_storage)": {
        "encoding": "mapping",
        "key": "t_address",
        "label": "mapping(address => struct CommentDetails)",
        "numberOfBytes": "32",
        "value": "t_struct(CommentDetails)1828_storage"
      },
      "t_mapping(t_uint64,t_address)": {
        "encoding": "mapping",
        "key": "t_uint64",
        "label": "mapping(uint64 => address)",
        "numberOfBytes": "32",
        "value": "t_address"
      },
      "t_mapping(t_uint64,t_struct(PurchaseDetails)1823_storage)": {
        "encoding": "mapping",
        "key": "t_uint64",
        "label": "mapping(uint64 => struct PurchaseDetails)",
        "numberOfBytes": "32",
        "value": "t_struct(PurchaseDetails)1823_storage"
      },
      "t_string_storage": {
        "encoding": "bytes",
        "label": "string",
        "numberOfBytes": "32"
      },
      "t_struct(CommentDetails)1828_storage": {
        "encoding": "inplace",
        "label": "struct CommentDetails",
        "members": [
          {
            "astId": 1825,
            "contract": "contracts/Store.sol:Product",
            "label": "attestationId",
            "offset": 0,
            "slot": "0",
            "type": "t_uint64"
          },
          {
            "astId": 1827,
            "contract": "contracts/Store.sol:Product",
            "label": "hasCommented",
            "offset": 8,
            "slot": "0",
            "type": "t_bool"
          }
        ],
        "numberOfBytes": "32"
      },
      "t_struct(PurchaseDetails)1823_storage": {
        "encoding": "inplace",
        "label": "struct PurchaseDetails",
        "members": [
          {
            "astId": 1816,
            "contract": "contracts/Store.sol:Product",
            "label": "timeOfPurchase",
            "offset": 0,
            "slot": "0",
            "type": "t_uint256"
          },
          {
            "astId": 1818,
            "contract": "contracts/Store.sol:Product",
            "label": "attestationId",
            "offset": 0,
            "slot": "1",
            "type": "t_uint64"
          },
          {
            "astId": 1820,
            "contract": "contracts/Store.sol:Product",
            "label": "quantity",
            "offset": 8,
            "slot": "1",
            "type": "t_uint64"
          },
          {
            "astId": 1822,
            "contract": "contracts/Store.sol:Product",
            "label": "price",
            "offset": 0,
            "slot": "2",
            "type": "t_uint256"
          }
        ],
        "numberOfBytes": "96"
      },
      "t_uint256": {
        "encoding": "inplace",
        "label": "uint256",
        "numberOfBytes": "32"
      },
      "t_uint64": {
        "encoding": "inplace",
        "label": "uint64",
        "numberOfBytes": "8"
      }
    }
  }
}